S01100004156525F5461736B322E7372656306
S11300000C9434000C9451000C9451000C94510045
S11300100C9451000C9451000C9451000C94510018
S11300200C9451000C9451000C9451000C94510008
S11300300C9451000C9451000C945D010C945100EB
S11300400C9451000C9451000C9451000C945100E8
S11300500C9451000C9494010C9451000C94510094
S11300600C9451000C94510011241FBECFEFD8E022
S1130070DEBFCDBF11E0A0E0B1E0E8E4F6E002C0ED
S113008005900D92A430B107D9F721E0A4E0B1E0C6
S113009001C01D92AD30B207E1F70E94F9000C9443
S11300A022030C9400009BB1907F282F22952F707F
S11300B0922B9BB99BB190629BB995E39A95F1F70A
S11300C000009BB19F7D9BB99AE69A95F1F700C019
S11300D09BB1907F8F70892B8BB98BB180628BB968
S11300E085E38A95F1F700008BB18F7D8BB98FE999
S11300F09FE00197F1F700C0000008959BB19F773E
S11301009BB90E94530008959BB190689BB90E94CB
S1130110530008958FEF8AB98FE295E70197F1F7BD
S113012000C0000083E30E947E0082E30E947E0000
S113013088E20E947E008CE00E947E0086E00E949D
S11301407E0081E00E947E008FE697E10197F1F73F
S113015000C0000008950F931F93CF93DF938C0189
S1130160C0E0D0E003C00E9484002196F801EC0FA7
S1130170FD1F80818111F7CFDF91CF911F910F91E6
S1130180089581E00E947E008FE99FE00197F1F7D6
S113019000C0000080E80E947E000895909108014C
S11301A0981759F080930801813021F485B1886053
S11301B085B9089585B1877F85B90895CF93C82FF0
S11301C00E94C10080E091E00E94AB004AE069E037
S11301D071E08C2F90E00E94ED0289E091E00E9492
S11301E0AB008FED0E94840083E40E948400CF91D1
S11301F0089584B18D7F84B985B1826085B984B155
S1130200886084B987B18E7F87B90E948A00EEE640
S1130210F0E080818260808389EF87BD64E082E0C2
S11302200E94B201ECE7F0E0808180668083EAE717
S1130230F0E080818C6880837894808180648083FE
S1130240609104017091050180E090E00E94F20148
S113025020E030E048EC52E40E94580220E030E014
S113026040E85BE30E9458020E94C301C62F6E312E
S113027090F0199B04C0109207011092060180911E
S11302800801882321F0199B0BC0823049F481E0D6
S11302900E94CE0005C0199B03C080E00E94CE00DE
S11302A08C2F0E94DE002FEF81EE94E021508040DD
S11302B09040E1F700C00000C3CF1F920F920FB629
S11302C00F9211242F933F934F935F936F937F93D8
S11302D08F939F93AF93BF93EF93FF938091080104
S11302E0813089F419990FC080910601909107011A
S11302F001969093070180930601823E944018F082
S113030082E00E94CE00FF91EF91BF91AF919F9147
S11303108F917F916F915F914F913F912F910F90AA
S11303200FBE0F901F9018951F920F920FB60F9249
S113033011248F939F93EF93FF938091790090E022
S11303409093050180930401EAE7F0E080818064E2
S11303508083FF91EF919F918F910F900FBE0F902B
S11303601F90189594B59C7F282F2370922B94BDD1
S113037095B5977F8870892B85BD85B5887F677013
S1130380682B65BD08950E94370288F09F5798F046
S1130390B92F9927B751B0F0E1F0660F771F881F86
S11303A0991F1AF0BA95C9F714C0B13091F00E94A0
S11303B05102B1E008950C945102672F782F8827D9
S11303C0B85F39F0B93FCCF3869577956795B395C7
S11303D0D9F73EF490958095709561957F4F8F4F36
S11303E09F4F0895E89409C097FB3EF4909580953B
S11303F0709561957F4F8F4F9F4F9923A9F0F92FE7
S113040096E9BB279395F695879577956795B79564
S1130410F111F8CFFAF4BB0F11F460FF1BC06F5F4A
S11304207F4F8F4F9F4F16C0882311F096E911C05C
S1130430772321F09EE8872F762F05C0662371F07D
S113044096E8862F70E060E02AF09A95660F771F91
S1130450881FDAF7880F9695879597F9089557FDC1
S11304609058440F551F59F05F3F71F04795880F1E
S113047097FB991F61F09F3F79F0879508951216B5
S113048013061406551FF2CF4695F1DF08C0161661
S113049017061806991FF1CF869571056105089412
S11304A00895E894BB2766277727CB0197F9089529
S11304B00E946B020C94DC020E94CE0238F00E946F
S11304C0D50220F0952311F00C94C5020C94CB02B4
S11304D011240C9452020E942F0270F3959FC1F3D1
S11304E0950F50E0551F629FF001729FBB27F00DDE
S11304F0B11D639FAA27F00DB11DAA1F649F662733
S1130500B00DA11D661F829F2227B00DA11D621F81
S1130510739FB00DA11D621F839FA00D611D221F3B
S1130520749F3327A00D611D231F849F600D211D1F
S1130530822F762F6A2F11249F5750409AF0F1F0A2
S113054088234AF0EE0FFF1FBB1F661F771F881F0B
S113055091505040A9F79E3F510580F00C94C5027C
S11305600C9452025F3FE4F3983ED4F3869577955A
S11305706795B795F795E7959F5FC1F7FE2B880FB1
S1130580911D9695879597F9089597F99F6780E847
S113059070E060E008959FEF80EC089500240A94D1
S11305A01616170618060906089500240A9412164A
S11305B01306140605060895092E0394000C11F47D
S11305C0882352F0BB0F40F4BF2B11F460FF04C02A
S11305D06F5F7F4F8F4F9F4F0895BB274A3031F491
S11305E0992322F4BDE2909581959F4F0C94F902D2
S11305F0BB27FB015527AA27880F991FAA1FA417F9
S113060010F0A41B83955051B9F7A05DAA3308F0EC
S1130610A95DA193009779F7B111B1931192CB0120
S11306200C941203DC01FC01672F71917723E1F72D
S1130630329704C07C916D9370836291AE17BF07AB
S10B0640C8F30895F894FFCFFC
S1070648543A00001C
S9030000FC
